:100000000EC028C027C026C025C024C023C022C0DF
:1000100021C020C080C01EC01DC01CC01BC0112438
:100020001FBECFE5D2E0DEBFCDBF10E0A0E6B0E05E
:10003000E8E1F2E002C005900D92A836B107D9F7C9
:1000400020E0A8E6B0E001C01D92AD36B207E1F7AE
:10005000BCD0E0C0D5CF21E030E001C0220F8A95AE
:10006000EAF780916800282B2093680008956111B9
:10007000F2CF21E030E0A90102C0440F551F8A955C
:10008000E2F7CA0180959091680089238093680007
:1000900008951F93CF93DF93D82F162FDCDFC3E093
:1000A000812FD9DFF8941092690010926A001092A3
:1000B0006B0010926C0078948091690090916A00B6
:1000C000A0916B00B0916C00883E9340A105B105F2
:1000D00098F360E0812FCBDFF894109269001092C2
:1000E0006A0010926B0010926C0078948091690005
:1000F00090916A00A0916B00B0916C00883E934093
:10010000A105B10598F3C15059F660E08D2FDF913C
:10011000CF911F91ACCF1F920F920FB60F92112467
:100120002F938F939F93AF93BF93EF93FF93809100
:10013000690090916A00A0916B00B0916C000196EB
:10014000A11DB11D8093690090936A00A0936B007C
:10015000B0936C008091690090916A00A0916B004F
:10016000B0916C00282F2770E22FF0E0809168009A
:1001700090E002C0959587952A95E2F780FF08C028
:10018000EE0FFF1FE05AFF4F818187BB808188BB44
:10019000FF91EF91BF91AF919F918F912F910F9010
:1001A0000FBE0F901F90189517BA18BA81E083BF41
:1001B00080E189BF0895B39B04C0B49B04C080E074
:1001C000089581E0089582E00895EEDF789463E079
:1001D00081E05FDF60E083E05CDF61E082E059DFC7
:1001E000C0E086B3887199F38C2F35DF8FE493ECF0
:1001F0000197F1F700C00000DEDF8823E9F360E03B
:100200008C2F35DFD8DF813011F4CF5F01C0C150B2
:08021000C370E7CFF894FFCFA3
:080218000206040602030103C3
:00000001FF
